{
  "_format": "hh-sol-artifact-1",
  "contractName": "RiftParlayCircuit",
  "sourceName": "contracts/RiftParlayCircuit.sol",
  "abi": [
    {
      "inputs": [],
      "name": "AlreadyEntered",
      "type": "error"
    },
    {
      "inputs": [],
      "name": "AlreadySettled",
      "type": "error"
    },
    {
      "inputs": [],
      "name": "CircuitExists",
      "type": "error"
    },
    {
      "inputs": [],
      "name": "CircuitMissing",
      "type": "error"
    },
    {
      "inputs": [],
      "name": "EntryMissing",
      "type": "error"
    },
    {
      "inputs": [],
      "name": "InvalidDuration",
      "type": "error"
    },
    {
      "inputs": [],
      "name": "Locked",
      "type": "error"
    },
    {
      "inputs": [],
      "name": "NotCreator",
      "type": "error"
    },
    {
      "inputs": [],
      "name": "NotLocked",
      "type": "error"
    },
    {
      "inputs": [],
      "name": "ZamaProtocolUnsupported",
      "type": "error"
    },
    {
      "anonymous": false,
      "inputs": [
        {
          "indexed": true,
          "internalType": "string",
          "name": "circuitId",
          "type": "string"
        }
      ],
      "name": "CircuitCancelled",
      "type": "event"
    },
    {
      "anonymous": false,
      "inputs": [
        {
          "indexed": true,
          "internalType": "string",
          "name": "circuitId",
          "type": "string"
        },
        {
          "indexed": false,
          "internalType": "string",
          "name": "headline",
          "type": "string"
        },
        {
          "indexed": false,
          "internalType": "uint256",
          "name": "lockTime",
          "type": "uint256"
        }
      ],
      "name": "CircuitCreated",
      "type": "event"
    },
    {
      "anonymous": false,
      "inputs": [
        {
          "indexed": true,
          "internalType": "string",
          "name": "circuitId",
          "type": "string"
        },
        {
          "indexed": false,
          "internalType": "bool",
          "name": "pushAll",
          "type": "bool"
        },
        {
          "indexed": false,
          "internalType": "uint8",
          "name": "winningPathline",
          "type": "uint8"
        }
      ],
      "name": "CircuitSettled",
      "type": "event"
    },
    {
      "anonymous": false,
      "inputs": [
        {
          "indexed": true,
          "internalType": "string",
          "name": "circuitId",
          "type": "string"
        },
        {
          "indexed": true,
          "internalType": "address",
          "name": "player",
          "type": "address"
        }
      ],
      "name": "EntryPlaced",
      "type": "event"
    },
    {
      "anonymous": false,
      "inputs": [
        {
          "indexed": true,
          "internalType": "string",
          "name": "circuitId",
          "type": "string"
        },
        {
          "indexed": false,
          "internalType": "uint8[4]",
          "name": "votes",
          "type": "uint8[4]"
        }
      ],
      "name": "VotesRevealed",
      "type": "event"
    },
    {
      "inputs": [],
      "name": "MAX_DURATION",
      "outputs": [
        {
          "internalType": "uint256",
          "name": "",
          "type": "uint256"
        }
      ],
      "stateMutability": "view",
      "type": "function"
    },
    {
      "inputs": [],
      "name": "MIN_DURATION",
      "outputs": [
        {
          "internalType": "uint256",
          "name": "",
          "type": "uint256"
        }
      ],
      "stateMutability": "view",
      "type": "function"
    },
    {
      "inputs": [],
      "name": "PATHLINE_COUNT",
      "outputs": [
        {
          "internalType": "uint8",
          "name": "",
          "type": "uint8"
        }
      ],
      "stateMutability": "view",
      "type": "function"
    },
    {
      "inputs": [
        {
          "internalType": "string",
          "name": "circuitId",
          "type": "string"
        }
      ],
      "name": "cancelCircuit",
      "outputs": [],
      "stateMutability": "nonpayable",
      "type": "function"
    },
    {
      "inputs": [],
      "name": "confidentialProtocolId",
      "outputs": [
        {
          "internalType": "uint256",
          "name": "",
          "type": "uint256"
        }
      ],
      "stateMutability": "view",
      "type": "function"
    },
    {
      "inputs": [
        {
          "internalType": "string",
          "name": "circuitId",
          "type": "string"
        },
        {
          "internalType": "string",
          "name": "headline",
          "type": "string"
        },
        {
          "internalType": "uint256",
          "name": "duration",
          "type": "uint256"
        }
      ],
      "name": "createCircuit",
      "outputs": [],
      "stateMutability": "nonpayable",
      "type": "function"
    },
    {
      "inputs": [
        {
          "internalType": "string",
          "name": "circuitId",
          "type": "string"
        },
        {
          "internalType": "externalEuint8",
          "name": "encryptedChoice",
          "type": "bytes32"
        },
        {
          "internalType": "bytes",
          "name": "proof",
          "type": "bytes"
        }
      ],
      "name": "enterCircuit",
      "outputs": [],
      "stateMutability": "nonpayable",
      "type": "function"
    },
    {
      "inputs": [
        {
          "internalType": "string",
          "name": "circuitId",
          "type": "string"
        }
      ],
      "name": "getCircuit",
      "outputs": [
        {
          "components": [
            {
              "internalType": "bool",
              "name": "exists",
              "type": "bool"
            },
            {
              "internalType": "string",
              "name": "circuitId",
              "type": "string"
            },
            {
              "internalType": "string",
              "name": "headline",
              "type": "string"
            },
            {
              "internalType": "address",
              "name": "creator",
              "type": "address"
            },
            {
              "internalType": "uint256",
              "name": "lockTime",
              "type": "uint256"
            },
            {
              "internalType": "bool",
              "name": "cancelled",
              "type": "bool"
            },
            {
              "internalType": "bool",
              "name": "settled",
              "type": "bool"
            },
            {
              "internalType": "bool",
              "name": "pushAll",
              "type": "bool"
            },
            {
              "internalType": "uint8",
              "name": "winningPathline",
              "type": "uint8"
            },
            {
              "internalType": "uint8[4]",
              "name": "revealedVotes",
              "type": "uint8[4]"
            },
            {
              "internalType": "uint256",
              "name": "totalEntrants",
              "type": "uint256"
            }
          ],
          "internalType": "struct RiftParlayCircuit.CircuitSnapshot",
          "name": "snapshot",
          "type": "tuple"
        }
      ],
      "stateMutability": "view",
      "type": "function"
    },
    {
      "inputs": [
        {
          "internalType": "string",
          "name": "circuitId",
          "type": "string"
        }
      ],
      "name": "getEntrants",
      "outputs": [
        {
          "internalType": "address[]",
          "name": "",
          "type": "address[]"
        }
      ],
      "stateMutability": "view",
      "type": "function"
    },
    {
      "inputs": [
        {
          "internalType": "string",
          "name": "circuitId",
          "type": "string"
        },
        {
          "internalType": "address",
          "name": "user",
          "type": "address"
        }
      ],
      "name": "getUserChoice",
      "outputs": [
        {
          "internalType": "bytes32",
          "name": "",
          "type": "bytes32"
        }
      ],
      "stateMutability": "view",
      "type": "function"
    },
    {
      "inputs": [
        {
          "internalType": "string",
          "name": "circuitId",
          "type": "string"
        },
        {
          "internalType": "address",
          "name": "user",
          "type": "address"
        }
      ],
      "name": "hasEntered",
      "outputs": [
        {
          "internalType": "bool",
          "name": "",
          "type": "bool"
        }
      ],
      "stateMutability": "view",
      "type": "function"
    },
    {
      "inputs": [],
      "name": "listCircuitIds",
      "outputs": [
        {
          "internalType": "string[]",
          "name": "",
          "type": "string[]"
        }
      ],
      "stateMutability": "view",
      "type": "function"
    },
    {
      "inputs": [
        {
          "internalType": "string",
          "name": "circuitId",
          "type": "string"
        }
      ],
      "name": "requestVoteReveal",
      "outputs": [],
      "stateMutability": "nonpayable",
      "type": "function"
    },
    {
      "inputs": [
        {
          "internalType": "string",
          "name": "circuitId",
          "type": "string"
        }
      ],
      "name": "settleCircuit",
      "outputs": [],
      "stateMutability": "nonpayable",
      "type": "function"
    },
    {
      "inputs": [
        {
          "internalType": "string",
          "name": "circuitId",
          "type": "string"
        },
        {
          "internalType": "uint8[4]",
          "name": "votes",
          "type": "uint8[4]"
        }
      ],
      "name": "submitDecryptedVotes",
      "outputs": [],
      "stateMutability": "nonpayable",
      "type": "function"
    }
  ],
  "bytecode": "0x6080604052346200012f576200001462000167565b5046600103620000ee576200002862000167565b506200003362000133565b5f81525f60208201525f60408201525b60018060a01b036040818351169260018060a01b0319937f9e7b61f58c47dc699ac88507c4f5bb9f121c03808c5676a8078fe583e46497009085825416179055826020820151167f9e7b61f58c47dc699ac88507c4f5bb9f121c03808c5676a8078fe583e464970190858254161790550151167f9e7b61f58c47dc699ac88507c4f5bb9f121c03808c5676a8078fe583e4649702918254161790556040516116099081620001e78239f35b4662aa36a70362000109576200010362000183565b62000043565b46617a69036200011d576200010362000183565b6040516373cac13b60e01b8152600490fd5b5f80fd5b60405190606082016001600160401b038111838210176200015357604052565b634e487b7160e01b5f52604160045260245ffd5b6200017162000133565b905f82525f60208301525f6040830152565b6200018d62000167565b506200019862000133565b73f0ffdc93b7e186bc2f8cb3daa75d86d1930a433d81527392c920834ec8941d2c77d188936e1f7a6f49c127602082015273be0e383937d564d7ff0bc3b46c51f0bf8d5c311a60408201529056fe6080806040526004361015610012575f80fd5b5f3560e01c9081634d84e39b14610f49575080635f10dc9d14610f2e5780636e7441ef14610eaf5780638927b03014610e8d57806390c239cf14610cac578063adf0ae4114610bb5578063b1724b4614610b98578063b6a6d17714610b7c578063bb28e40f146109a5578063be5b223c146108b7578063c57645a9146107dc578063cdf85a4b14610784578063d1faea5d146104ae578063dc802841146103555763e4baeda3146100c1575f80fd5b34610351576020366003190112610351576001600160401b03600435818111610351576100f2903690600401610f8c565b6040519261016084019081118482101761033d576040525f835260606020840152606060408401525f60608401525f60808401525f60a08401525f60c08401525f60e08401525f61010084015260405161014b8161119e565b60803682376101208401525f61014084015260ff604051828482375f838201526020818481010301902054161561032b57602060079282604051938492833781015f81520301902060ff815416151583526101a8600182016111da565b60208401526101b9600282016111da565b604084015260018060a01b0360038201541660608401526004810154608084015260ff6005820154818116151560a0860152818160081c16151560c0860152818160101c16151560e086015260181c1661010084015260405160ff60068301548181168352818160081c166020840152818160101c16604084015260181c1660608201526102468161119e565b61012084015201546101408201526040516020815281511515602082015261029861028260208401516101c060408501526101e0840190610ffb565b6040840151838203601f19016060850152610ffb565b60018060a01b036060840151166080830152608083015160a083015260a0830151151560c083015260c0830151151560e083015260e0830151151561010083015260ff6101008401511661012083015261012083015161014083015f905b6004821061031257505050610140829301516101c08301520390f35b60208060019260ff8651168152019301910190916102f6565b604051633038e2af60e21b8152600490fd5b634e487b7160e01b5f52604160045260245ffd5b5f80fd5b346103515760a0366003190112610351576004356001600160401b03811161035157610385903690600401610f8c565b3660a411610351576040519080838337808201925f845260ff809360208181970301902054161561032b57604051828282376020818481015f81520301902060ff600582015460081c1661049d576004810154421061048b575f906024825b600481106104615750506006015581604051928392833781015f8152039020916040519182916024925f905b6004821061044057867fdd4ec28077a7f9a5b20f9d8bc087e9be040c178629fa8b644780e5a9f0b942e4608088a2005b84359084821680920361035157838160019382935201950191019093610410565b9092833590878216809203610351576001918991898560031b92831b921b191617940191016103e4565b604051631834e26560e01b8152600490fd5b60405162560ff960e81b8152600490fd5b34610351576060366003190112610351576001600160401b03600435818111610351576104df903690600401610f8c565b9091604435818111610351576104f9903690600401610f8c565b60405191928486843760ff838681015f815260209586910301902054161561032b576040518587823783818781015f8152030190209160ff600584015416610772576004830154421015610772576040518688823784818881016001815203019020335f52845260405f209160ff83541661076057811161033d576040519461058b601f8301601f19168601876111b9565b818652368282011161035157815f92869283890137860101525f8361060860018060a01b0396877f9e7b61f58c47dc699ac88507c4f5bb9f121c03808c5676a8078fe583e464970154169060405194858094819363045fc19560e11b83526024356004840152336024840152608060448401526084830190610ffb565b6002606483015203925af1938415610725575f94610730575b5050837f9e7b61f58c47dc699ac88507c4f5bb9f121c03808c5676a8078fe583e4649700541692833b1561035157604051630f8e573b60e21b815260048101829052336024820152935f908590604490829084905af19384156107255760016106ac938392600797610716575b50805460ff19168217815501556106a53382611559565b3090611559565b018054600160401b81101561033d576106ca91600182018155611176565b819291549060031b9133831b921b1916179055806040519283378101905f82528033920390207f3e5c547d2056c549abb1a61e6b9a11c8c323fa7e5f0d13829cf7fcb4c9a7435a5f80a3005b61071f9061118b565b8a61068e565b6040513d5f823e3d90fd5b9080929450813d8311610759575b61074881836111b9565b810103126103515751918680610621565b503d61073e565b604051637863668360e01b8152600490fd5b6040516303cb96db60e21b8152600490fd5b34610351576020366003190112610351576004356001600160401b038111610351576107b4903690600401610f8c565b60ff604051828482376020818481015f81520301902054161561032b576107da9161128d565b005b34610351576020366003190112610351576004356001600160401b0381116103515761080c903690600401610f8c565b9060ff604051838382376020818581015f81520301902054161561032b57604051828282375f838201908152819003602001902060038101546001600160a01b031633036108a557600501805460ff8160081c1661049d5760ff191660011790556040519182918190833781015f81520390207fc82945756c51224f1cdd6c4f9ac1feffd5d6785ca648c3079d37713e9b2ab3cd5f80a2005b6040516393687c0b60e01b8152600490fd5b34610351575f366003190112610351576002546001600160401b03811161033d576020604051916108ed828260051b01846111b9565b808352818301908160025f527f405787fa12a823e0f2b7631cc41b3ba8828b3321ca811111fa75cd3aa3bb5ace5f915b8383106109835750505050604051918083019381845251809452604083019360408160051b85010192915f955b8287106109575785850386f35b909192938280610973600193603f198a82030186528851610ffb565b960192019601959291909261094a565b6001868192610994859a999a6111da565b81520192019201919095949561091d565b3461035157602080600319360112610351576001600160401b03600435818111610351576109d7903690600401610f8c565b60405192918181853760ff828501945f8652868183970301902054161561032b576040518282823785818481015f81520301902093600585015460ff8116610772576004860154421061048b5760081c60ff1661049d579193600701915f5b83548110156107da57604051908684833786820191888160019485815203019020610a618287611176565b919060018060a01b03928391549060031b1c165f52895260405f2084815416610a91575b50506001915001610a36565b83015460405191604083018381108a82111761033d576040528483528a8301918b368437835115610b685782527f9e7b61f58c47dc699ac88507c4f5bb9f121c03808c5676a8078fe583e4649700541691823b1561035157604051637d6e912360e11b8152600481018c905290516024820181905290948592604484019290915f918e5b818410610b4f57505050505091815f81819503925af191821561072557600192610b40575b80610a85565b610b499061118b565b88610b3a565b845186528996509485019490930192918101918e610b15565b634e487b7160e01b5f52603260045260245ffd5b34610351575f3660031901126103515760206040516102588152f35b34610351575f366003190112610351576020604051620546008152f35b3461035157602080600319360112610351576004356001600160401b03811161035157610be6903690600401610f8c565b60ff6040518284823784818481015f81520301902054161561032b578260079282604051938492833781015f81520301902001604051908183825491828152019081925f52845f20905f5b86828210610c8f578686610c47828803836111b9565b60405192839281840190828552518091526040840192915f5b828110610c6f57505050500390f35b83516001600160a01b031685528695509381019392810192600101610c60565b83546001600160a01b031685529093019260019283019201610c31565b34610351576060366003190112610351576001600160401b0360043581811161035157610cdd903690600401610f8c565b909160243590811161035157610cf7903690600401610f8c565b9060443590604051848682376020818681015f81520301902091825460ff8116610e7b5761025882108015610e6f575b610e5d5760019060ff1916178355610d43858760018601611071565b610d51848360028601611071565b60038301336bffffffffffffffffffffffff60a01b825416179055420191824211610e495760048101928355600501805463ff000000191663ff000000179055600254600160401b81101561033d576001810180600255811015610b685784606093610e067f27829261fea7328b89dfe0a76c2dc033c461be08af3962835ad127a0119a12c19789889560025f527f405787fa12a823e0f2b7631cc41b3ba8828b3321ca811111fa75cd3aa3bb5ace01611071565b549681604051928392833781015f81520390209560405194859360408552816040860152858501375f8383018501526020830152601f01601f19168101030190a2005b634e487b7160e01b5f52601160045260245ffd5b604051637616640160e01b8152600490fd5b50620546008211610d27565b60405163dc6160a360e01b8152600490fd5b34610351575f366003190112610351576020610ea761152a565b604051908152f35b3461035157610ebd36610fb9565b9160ff604051838382376020818581015f81520301902054161561032b57602090826040519384928337810160018152030190209060018060a01b03165f5260205260405f2060ff81541615610f1c5760016020910154604051908152f35b604051630d40557d60e11b8152600490fd5b34610351575f36600319011261035157602060405160048152f35b3461035157806020610f5a36610fb9565b949181908337810160018152030190209060018060a01b03165f52602052602060ff60405f2054166040519015158152f35b9181601f84011215610351578235916001600160401b038311610351576020838186019501011161035157565b604060031982011261035157600435906001600160401b03821161035157610fe391600401610f8c565b90916024356001600160a01b03811681036103515790565b91908251928382525f5b848110611025575050825f602080949584010152601f8019910116010190565b602081830181015184830182015201611005565b90600182811c92168015611067575b602083101461105357565b634e487b7160e01b5f52602260045260245ffd5b91607f1691611048565b9092916001600160401b03811161033d5761108c8254611039565b601f8111611131575b505f601f82116001146110cd57819293945f926110c2575b50508160011b915f199060031b1c1916179055565b013590505f806110ad565b601f19821694835f5260209160205f20925f905b88821061111957505083600195969710611100575b505050811b019055565b01355f19600384901b60f8161c191690555f80806110f6565b806001849682949587013581550195019201906110e1565b825f5260205f20601f830160051c8101916020841061116c575b601f0160051c01905b8181106111615750611095565b5f8155600101611154565b909150819061114b565b8054821015610b68575f5260205f2001905f90565b6001600160401b03811161033d57604052565b608081019081106001600160401b0382111761033d57604052565b90601f801991011681019081106001600160401b0382111761033d57604052565b9060405191825f82546111ec81611039565b908184526020946001916001811690815f1461125a575060011461121c575b50505061121a925003836111b9565b565b5f90815285812095935091905b81831061124257505061121a93508201015f808061120b565b85548884018501529485019487945091830191611229565b9250505061121a94925060ff191682840152151560051b8201015f808061120b565b906004811015610b685760051b0190565b60408051838382376020818581015f815203019020926005840180549260ff958685166115195760049788820154421061150957878660081c166114fa575f93925f938151966112dc8861119e565b60803689375f965b8b8816968d8810156113a4578d89101561139157908c918260068b60051c8a01015460f88c60031b161c16918382168084115f14611331575050506001909881988b525b011696956112e4565b83919a929b93149081611387575b5061134e575b50600190611328565b909188168d8114611374579160019161136d8f848196019b168d61127c565b5290611345565b60118f634e487b7160e01b5f525260245ffd5b905015155f61133f565b60328e634e487b7160e01b5f525260245ffd5b919750939a9995508991979b945097919716156114a057508616906001820361142d575050847f97a0cc8aa5886ff719e122ab7fd244c29100f5967ef79c5c8b786f5848b182979596975116925b610100815463ff0000008660181b169063ffffff00191617179055818451928392833781015f8152039020938251915f8352166020820152a2565b5f1943019043821161148d57821561147a57508697987f97a0cc8aa5886ff719e122ab7fd244c29100f5967ef79c5c8b786f5848b1829797926114729240069061127c565b5116926113f2565b601290634e487b7160e01b5f525260245ffd5b601190634e487b7160e01b5f525260245ffd5b62ffff001916620101001790945550835195965093947f97a0cc8aa5886ff719e122ab7fd244c29100f5967ef79c5c8b786f5848b18297949092508291908190833781015f815203902092815190600182526020820152a2565b825162560ff960e81b81528990fd5b8251631834e26560e01b81528990fd5b81516303cb96db60e21b8152600490fd5b4660010361153757600190565b4662aa36a7036115475761271190565b617a694614611554575f90565b5f1990565b7f9e7b61f58c47dc699ac88507c4f5bb9f121c03808c5676a8078fe583e4649700546001600160a01b031691823b1561035157604051635ca4b5b160e11b815260048101929092526001600160a01b03166024820152905f908290604490829084905af18015610725576115ca5750565b61121a9061118b56fea26469706673582212203aeed06c731a63cdc94ebda4fd042abe01fcbc766eaaf1d79353de881ca36aed64736f6c63430008180033",
  "linkReferences": {},
  "deployedLinkReferences": {}
}